{"abi":[{"type":"function","name":"DATA_COMMITMENT_MAX","inputs":[],"outputs":[{"name":"","type":"uint64","internalType":"uint64"}],"stateMutability":"view"},{"type":"function","name":"SP1_BLOB_STREAM_PROGRAM_VK","inputs":[],"outputs":[{"name":"","type":"bytes32","internalType":"bytes32"}],"stateMutability":"view"},{"type":"function","name":"VERIFIER_HASH","inputs":[],"outputs":[{"name":"","type":"bytes32","internalType":"bytes32"}],"stateMutability":"pure"},{"type":"function","name":"VERSION","inputs":[],"outputs":[{"name":"","type":"string","internalType":"string"}],"stateMutability":"pure"},{"type":"function","name":"Verify","inputs":[{"name":"proof","type":"bytes","internalType":"bytes"},{"name":"public_inputs","type":"uint256[]","internalType":"uint256[]"}],"outputs":[{"name":"success","type":"bool","internalType":"bool"}],"stateMutability":"view"},{"type":"function","name":"hashPublicValues","inputs":[{"name":"publicValues","type":"bytes","internalType":"bytes"}],"outputs":[{"name":"","type":"bytes32","internalType":"bytes32"}],"stateMutability":"pure"},{"type":"function","name":"verify","inputs":[{"name":"commitHeaderRangeProof","type":"bytes","internalType":"bytes"},{"name":"commitHeaderRangePublicValues","type":"bytes","internalType":"bytes"},{"name":"sharesProof","type":"tuple","internalType":"struct SharesProof","components":[{"name":"data","type":"bytes[]","internalType":"bytes[]"},{"name":"shareProofs","type":"tuple[]","internalType":"struct NamespaceMerkleMultiproof[]","components":[{"name":"beginKey","type":"uint256","internalType":"uint256"},{"name":"endKey","type":"uint256","internalType":"uint256"},{"name":"sideNodes","type":"tuple[]","internalType":"struct NamespaceNode[]","components":[{"name":"min","type":"tuple","internalType":"struct Namespace","components":[{"name":"version","type":"bytes1","internalType":"bytes1"},{"name":"id","type":"bytes28","internalType":"bytes28"}]},{"name":"max","type":"tuple","internalType":"struct Namespace","components":[{"name":"version","type":"bytes1","internalType":"bytes1"},{"name":"id","type":"bytes28","internalType":"bytes28"}]},{"name":"digest","type":"bytes32","internalType":"bytes32"}]}]},{"name":"namespace","type":"tuple","internalType":"struct Namespace","components":[{"name":"version","type":"bytes1","internalType":"bytes1"},{"name":"id","type":"bytes28","internalType":"bytes28"}]},{"name":"rowRoots","type":"tuple[]","internalType":"struct NamespaceNode[]","components":[{"name":"min","type":"tuple","internalType":"struct Namespace","components":[{"name":"version","type":"bytes1","internalType":"bytes1"},{"name":"id","type":"bytes28","internalType":"bytes28"}]},{"name":"max","type":"tuple","internalType":"struct Namespace","components":[{"name":"version","type":"bytes1","internalType":"bytes1"},{"name":"id","type":"bytes28","internalType":"bytes28"}]},{"name":"digest","type":"bytes32","internalType":"bytes32"}]},{"name":"rowProofs","type":"tuple[]","internalType":"struct BinaryMerkleProof[]","components":[{"name":"sideNodes","type":"bytes32[]","internalType":"bytes32[]"},{"name":"key","type":"uint256","internalType":"uint256"},{"name":"numLeaves","type":"uint256","internalType":"uint256"}]},{"name":"attestationProof","type":"tuple","internalType":"struct AttestationProof","components":[{"name":"tupleRootNonce","type":"uint256","internalType":"uint256"},{"name":"tuple","type":"tuple","internalType":"struct DataRootTuple","components":[{"name":"height","type":"uint256","internalType":"uint256"},{"name":"dataRoot","type":"bytes32","internalType":"bytes32"}]},{"name":"proof","type":"tuple","internalType":"struct BinaryMerkleProof","components":[{"name":"sideNodes","type":"bytes32[]","internalType":"bytes32[]"},{"name":"key","type":"uint256","internalType":"uint256"},{"name":"numLeaves","type":"uint256","internalType":"uint256"}]}]}]}],"outputs":[{"name":"commit","type":"bytes32","internalType":"bytes32"}],"stateMutability":"nonpayable"},{"type":"function","name":"verifyAttestation","inputs":[{"name":"_tupleRootNonce","type":"uint256","internalType":"uint256"},{"name":"tuple","type":"tuple","internalType":"struct DataRootTuple","components":[{"name":"height","type":"uint256","internalType":"uint256"},{"name":"dataRoot","type":"bytes32","internalType":"bytes32"}]},{"name":"proof","type":"tuple","internalType":"struct BinaryMerkleProof","components":[{"name":"sideNodes","type":"bytes32[]","internalType":"bytes32[]"},{"name":"key","type":"uint256","internalType":"uint256"},{"name":"numLeaves","type":"uint256","internalType":"uint256"}]}],"outputs":[{"name":"","type":"bool","internalType":"bool"}],"stateMutability":"view"},{"type":"function","name":"verifyProof","inputs":[{"name":"programVKey","type":"bytes32","internalType":"bytes32"},{"name":"publicValues","type":"bytes","internalType":"bytes"},{"name":"proofBytes","type":"bytes","internalType":"bytes"}],"outputs":[],"stateMutability":"view"},{"type":"error","name":"InvalidProof","inputs":[]},{"type":"error","name":"WrongVerifierSelector","inputs":[{"name":"received","type":"bytes4","internalType":"bytes4"},{"name":"expected","type":"bytes4","internalType":"bytes4"}]}],"bytecode":{"object":"0x60808060405234601557614506908161001a8239f35b5f80fdfe60806040526004361015610011575f80fd5b5f3560e01c80631f3302a9146100a45780632a5104361461009f57806341493c601461009a5780634710384e146100955780636b61d8e71461009057806379c039ba1461008b5780637e4f7a8a14610086578063ae4dd7e4146100815763ffa1ad741461007c575f80fd5b610727565b610692565b61060d565b6105d4565b610590565b610574565b61036b565b610303565b34610153576080600319360112610153576004356100c136610204565b60643567ffffffffffffffff81116101535761014f92610133926100f96100ef610120943690600401610262565b926001541461079d565b61012e5f549160405194859160208301815181526020918201519181019190915260400190565b03601f1981018552846101c1565b613310565b5061013d816107e8565b60405190151581529081906020820190565b0390f35b5f80fd5b7f4e487b71000000000000000000000000000000000000000000000000000000005f52604160045260245ffd5b6040810190811067ffffffffffffffff8211176101a057604052565b610157565b6060810190811067ffffffffffffffff8211176101a057604052565b90601f601f19910116810190811067ffffffffffffffff8211176101a057604052565b604051906101f360c0836101c1565b565b604051906101f36060836101c1565b7fffffffffffffffffffffffffffffffffffffffffffffffffffffffffffffffdc6040910112610153576040519061023b82610184565b60243582526044356020830152565b67ffffffffffffffff81116101a05760051b60200190565b919091606081840312610153576040519061027c826101a5565b8193813567ffffffffffffffff81116101535782019080601f830112156101535781356102a88161024a565b926102b660405194856101c1565b81845260208085019260051b82010192831161015357602001905b8282106102f35750505060409182918452602081013560208501520135910152565b81358152602091820191016102d1565b34610153575f6003193601126101535760206040517fd4e8ecd2357dd882209800acd6abb443d231cf287d77ba62b732ce937c8b56e78152f35b9181601f840112156101535782359167ffffffffffffffff8311610153576020838186019501011161015357565b346101535760606003193601126101535760043560243567ffffffffffffffff81116101535761039f90369060040161033d565b9060443567ffffffffffffffff8111610153576103c090369060040161033d565b9290916103d66103d08585610833565b9061085e565b7fd4e8ecd2000000000000000000000000000000000000000000000000000000007fffffffff000000000000000000000000000000000000000000000000000000008216036105035750926104549261043282936020966109d1565b61043a6108c4565b9661044488610913565b5261044e87610925565b52610841565b9061048c60405194859384937f7e4f7a8a00000000000000000000000000000000000000000000000000000000855260048501610961565b0381305afa9081156104fe575f916104cf575b50156104a757005b7f09bde339000000000000000000000000000000000000000000000000000000005f5260045ffd5b6104f1915060203d6020116104f7575b6104e981836101c1565b810190610949565b5f61049f565b503d6104df565b6109c6565b7f988066a1000000000000000000000000000000000000000000000000000000005f527fffffffff00000000000000000000000000000000000000000000000000000000166004527fd4e8ecd20000000000000000000000000000000000000000000000000000000060245260445ffd5b34610153575f6003193601126101535760206040516127108152f35b346101535760206003193601126101535760043567ffffffffffffffff8111610153576105cc6105c6602092369060040161033d565b906109d1565b604051908152f35b34610153575f6003193601126101535760206040517ede39c136b88dfeacb832629e21a9667935bc0e74aaa21292e4f237d79d0bef8152f35b346101535760406003193601126101535760043567ffffffffffffffff81116101535761063e90369060040161033d565b906024359067ffffffffffffffff821161015357366023830112156101535781600401359067ffffffffffffffff8211610153573660248360051b850101116101535761014f93602461013d940191612a15565b346101535760606003193601126101535760043567ffffffffffffffff8111610153576106c390369060040161033d565b9060243567ffffffffffffffff8111610153576106e490369060040161033d565b604435929167ffffffffffffffff84116101535760e060031985360301126101535761014f9461071794600401936131e1565b6040519081529081906020820190565b34610153575f60031936011261015357604080519061074681836101c1565b6006825260208201917f76352e302e3000000000000000000000000000000000000000000000000000008352601f19601f8351948593602085525180918160208701528686015e5f85828601015201168101030190f35b156107a457565b606460405162461bcd60e51b815260206004820152600d60248201527f696e76616c6964206e6f6e6365000000000000000000000000000000000000006044820152fd5b156107ef57565b606460405162461bcd60e51b815260206004820152601e60248201527f696e76616c69642042696e6172794d65726b6c65547265652070726f6f6600006044820152fd5b906004116101535790600490565b909291928360041161015357831161015357600401916003190190565b919091357fffffffff0000000000000000000000000000000000000000000000000000000081169260048110610892575050565b7fffffffff00000000000000000000000000000000000000000000000000000000929350829060040360031b1b161690565b604051606091906108d583826101c1565b6002815291601f1901366020840137565b7f4e487b71000000000000000000000000000000000000000000000000000000005f52603260045260245ffd5b8051156109205760200190565b6108e6565b8051600110156109205760400190565b80518210156109205760209160051b010190565b90816020910312610153575180151581036101535790565b91601f19601f826080936020956040885281604089015260608801375f60608288010152011683016060810193836060828403019101528451809452019201905f5b8181106109b05750505090565b82518452602093840193909201916001016109a3565b6040513d5f823e3d90fd5b6020915f918160405192839283378101838152039060025afa156104fe577f1fffffffffffffffffffffffffffffffffffffffffffffffffffffffffffffff5f511690565b606460405162461bcd60e51b815260206004820152601260248201527f6572726f72206563206f7065726174696f6e00000000000000000000000000006044820152fd5b606460405162461bcd60e51b815260206004820152601660248201527f6f70656e696e677320626967676572207468616e2072000000000000000000006044820152fd5b606460405162461bcd60e51b815260206004820152600c60248201527f6572726f722076657269667900000000000000000000000000000000000000006044820152fd5b606460405162461bcd60e51b815260206004820152601460248201527f6572726f722072616e646f6d2067656e206b7a670000000000000000000000006044820152fd5b5f915b818310610b3557505050565b7f30644e72e131a029b85045b68181585d2833e84879b9709143e1f593f0000000813511610b6b57602060019101920191610b29565b606460405162461bcd60e51b815260206004820152601860248201527f696e707574732061726520626967676572207468616e207200000000000000006044820152fd5b61036003610bb957565b606460405162461bcd60e51b815260206004820152601060248201527f77726f6e672070726f6f662073697a65000000000000000000000000000000006044820152fd5b7f30644e72e131a029b85045b68181585d2833e84879b9709143e1f593f000000061018082013511610d4e577f30644e72e131a029b85045b68181585d2833e84879b9709143e1f593f00000006101a082013511610d4e577f30644e72e131a029b85045b68181585d2833e84879b9709143e1f593f00000006101c082013511610d4e577f30644e72e131a029b85045b68181585d2833e84879b9709143e1f593f00000006101e082013511610d4e577f30644e72e131a029b85045b68181585d2833e84879b9709143e1f593f000000061020082013511610d4e577f30644e72e131a029b85045b68181585d2833e84879b9709143e1f593f000000061026082013511610d4e57610300015f905b60018210610d18575050565b7f30644e72e131a029b85045b68181585d2833e84879b9709143e1f593f0000000813511610d4e57602060019101910190610d0c565b610a5a565b906020909392936103056040519560c061024088019586946467616d6d6186527f239ed22af3191cfccd323949e417667defbcb082d9f31527488e523372ea9e7a6102608b01527f213da3cb623029a98e0186dc8c1a3a31ee249ab93bfb68abc1103900890eccb96102808b01527f01fd59b61f15d097ad7701c4dc12b8739eadc1d54664773c3ed5d8104c296c2a6102a08b01527e22ee53909feab41bb47f0e6ddb802bb6096fd2027d89c22d94b4e56e227cd06102c08b01527f14992dea1a6515e3f8a2250e30cb9e3bad58ff44bbfdd1390bc8d0a8f2bddd0f6102e08b01527f1e82777c7079b474d31f9fedafca8f2d108de5c58a2df629a8af49cd424c8c296103008b01527f060081d04d187d301d4223990acab3c887713358f1705af7f53e07aca0f709dd6103208b01527f16911506ad1ccf9b39db250ce7752278c8115127c4f85080c2bd153946b4a5be6103408b01527f279df33b57d698efd752579ee90674a7241ecdb21c6cb35cdf8ef7c1af73160a6103608b01527f202fa12c1e82de2f49dc4c5bc771b94c8495544bb0055c4c381744cc3d1d332d6103808b01527f040315f3fd753e8cca89f353d096fb94fcdf9cd41973954a3dd4ec58cba79d5f6103a08b01527f18e0b4a84e9429c05d0fd0d304acd0f3cfa93437356c112199d4d7c0162a1c9e6103c08b01527f2e14e072ab351d1b3838323f75ecf9b6c08043c230423d515febd04e29336b776103e08b01527f1553e1a7b6e18ba105733244604cd37d82371c3a7b0503fa4aff460870170bcf6104008b01527f0c203d7594efa49bd977084de30db24ce843e501791176c21b5beda79ceaf1366104208b01527f0c4bddeb52250b0114282b00285f224b812fc581f2b55e5c3a49472069f901f36104408b01527f2fb4fbb4677318edec4b80fc8fa22ffcce4a51d5f3771e575e726e790a9f9cbe6104608b01527f28518b11376dc02418849d45b1f3b0e00d3f74502d713b002b9d7293a1018d796104808b015260051b80936104a08b01376104a0838a0101370161025b860160025afa1561107e57519160407f30644e72e131a029b85045b68181585d2833e84879b9709143e1f593f00000018406910152565b610a9e565b906040519161024083019063626574618252610260840152602081602461025c860160025afa1561107e57519160207f30644e72e131a029b85045b68181585d2833e84879b9709143e1f593f00000018406910152565b9190604061022081519461024086019364616c7068618552610260870152826103208201610280880137016102c085013760208160a561025b860160025afa1561107e5751917f30644e72e131a029b85045b68181585d2833e84879b9709143e1f593f000000183069052565b9060c08060405193610240850193637a65746185526102608601520161028084013760208160e461025c850160025afa1561107e577f30644e72e131a029b85045b68181585d2833e84879b9709143e1f593f00000016060915106910152565b9092915f90604051916101c06060840151930151947f30644e72e131a029b85045b68181585d2833e84879b9709143e1f593f00000017f30644e427ce32d4886b01bfe313ba1dba6db8b2045d128178a7164500e0a6c1184970996600184955f915b8383106113a557505050600185525f955f5b87838210156112635790816020807f30644e72e131a029b85045b68181585d2833e84879b9709143e1f593f00000016001958c0151848c0151900992019a8a0101520161121b565b91959398975050979297949094601f19818401019101611287602082018251612947565b915f915b87831061135c575050505060015f915b8583106112f757505050505f905b8282106112b65750505050565b909192946020807f30644e72e131a029b85045b68181585d2833e84879b9709143e1f593f00000016001938186358b510990089701920192019092916112a9565b7f30644e72e131a029b85045b68181585d2833e84879b9709143e1f593f00000017f0c9fabc7845d50d2852e2a0371c6441f145e0db82e8326961c25f1e3e32b045b6020838386818a6001989e9c9d9e5109098152019309920191909594939561129b565b601f197f30644e72e131a029b85045b68181585d2833e84879b9709143e1f593f0000001816001939b999a9b01958451908288518209865209920192019190929796959761128b565b60207f30644e72e131a029b85045b68181585d2833e84879b9709143e1f593f00000017f0c9fabc7845d50d2852e2a0371c6441f145e0db82e8326961c25f1e3e32b045b8382600195819d97989d038808865209920197019190611209565b9190604051926101c06060850151940151925f815260208101915f835261034060408301916103208101358352013560608301525f6080830153603060818301535f60828301536042608383015360536084830153604260858301536032608683015360326087830153602d608883015360506089830153606c608a830153606f608b830153606e608c830153606b608d830153600b608e830153602082608f8160025afa1561107e57815190600184536042602184015360536022840153604260238401536032602484015360326025840153602d602684015360506027840153606c6028840153606f6029840153606e602a840153606b602b840153600b602c840153602083602d8160025afa1561107e576002918351188452536042604182015360536042820153604260438201536032604482015360326045820153602d604682015360506047820153606c6048820153606f6049820153606e604a820153606b604b820153600b604c820153602082602d8160025afa1561107e577f30644e72e131a029b85045b68181585d2833e84879b9709143e1f593f000000194859462a65350866115d69581700100000000000000000000000000000000875109905160801c90089501916115dd565b90095f0890565b92909160208252602080830152602060408301527f0c9fabc7845d50d2852e2a0371c6441f145e0db82e8326961c25f1e3e32b045b606083015260808201527f30644e72e131a029b85045b68181585d2833e84879b9709143e1f593f000000160a082015260208160c08160055afa156116af577f30644e72e131a029b85045b68181585d2833e84879b9709143e1f593f000000192837f30644e427ce32d4886b01bfe313ba1dba6db8b2045d128178a7164500e0a6c116116a88483809651958682039008612947565b9209090990565b606460405162461bcd60e51b815260206004820152600c60248201527f6572726f72206d6f6420657870000000000000000000000000000000000000006044820152fd5b60405160807f30644e72e131a029b85045b68181585d2833e84879b9709143e1f593f0000001806101c0840151817f30644e427ce32d4886b01bfe313ba1dba6db8b2045d128178a7164500e0a6c116117776102408801837f30644e72e131a029b85045b68181585d2833e84879b9709143e1f593f000000060608b015108612947565b090981845180920909910152565b60405190610160820151610240830152610180820151610260830152610280810180356102808401526102a08201356102a08401526102208201356102c08401526102408201356102e08401526103008301916102c081013583526102e081013561032085015260608401516103408501526101e084015161036085015260206102408501610140610240870160025afa15611b65577f30644e72e131a029b85045b68181585d2833e84879b9709143e1f593f0000001610240850151069382356102408201526102a08201356102608201526118706102808201866102c0850161024085016128d9565b611888610280820186610220850161016085016128d9565b610140810161189c86610260850183612918565b7f1fa4be93b5e7f7e674d5059b63554fab99638b304ed8310e9fa44c281ac9b03b61028083019081527f1a01ae7fac6228e39d3cb5a5e71fd31160f3241e79a5f48ffb3737e6c389b7216102a084015290516102c083015260409060608160075afa1561107e576119e484610460936102c07f30644e72e131a029b85045b68181585d2833e84879b9709143e1f593f00000016101f3996119ae857f0efd30ac7b6f8d0d3ccbc2207587c2acbad1532dc0293f0d034cf8258cd428b39a6102a08a01517f30644e72e131a029b85045b68181585d97816a916871ca8d3c208c16d87cfd47036102a08b01526119a0868b016102808c018c61016080820191016127f3565b60608a015190868b01612876565b817f0c9fabc7845d50d2852e2a0371c6441f145e0db82e8326961c25f1e3e32b045b606089015109900991016102c085016128d9565b6119f8846102c083016101608401806127f3565b6102608101517f30644e72e131a029b85045b68181585d97816a916871ca8d3c208c16d87cfd47038061026083015261016082015185526101808201516103208301527f198e9393920d483a7260bfb731fb5d25f1aa493335a9e71297e485b7aef312c26103408301527f1800deef121f1e76426a00665e5c4479674322d4f75edadd46debd5cd992f6ed6103608301527f090689d0585ff075ec9e99ad690c3395bc4b313370b38ef355acdadcd122975b6103808301527f12c85ea5db8c6deb4aab71808dcb408fe3d1e7690c43d37b4ce6cc0166fa7daa6103a08301526102408201516103c08301526103e08201527f22f1acbb03c4508760c2430af35865e7cdf9f3eb1224504fdcc3708ddb954a486104008201527f2a344fad01c2ed0ed73142ae1752429eaea515c6f3f6b941103cc21c2308e1cb6104208201527f159f15b842ba9c8449aa3268f981010d4c7142e5193473d80b464e964845c3f86104408201520152611b6a565b610ae2565b60205f6101806040519360085afa15611b87576102005f51910152565b606460405162461bcd60e51b815260206004820152600d60248201527f6572726f722070616972696e67000000000000000000000000000000000000006044820152fd5b60405190610240820190610260830161028084016101e08501519161016086019260e087015184526101008701516101808801526101208701519661014001968752611c19868287876128d9565b611c2881610180870189612918565b7f30644e72e131a029b85045b68181585d2833e84879b9709143e1f593f0000001818009611c5b878260408901886128d9565b81611c6b826101a089018b612918565b7f30644e72e131a029b85045b68181585d2833e84879b9709143e1f593f00000019109611c9d878260808901886128d9565b81611cad826101c089018b612918565b7f30644e72e131a029b85045b68181585d2833e84879b9709143e1f593f000000191097f239ed22af3191cfccd323949e417667defbcb082d9f31527488e523372ea9e7a87527f213da3cb623029a98e0186dc8c1a3a31ee249ab93bfb68abc1103900890eccb98352611d228482898861289a565b81611d32826101e089018b612918565b7f30644e72e131a029b85045b68181585d2833e84879b9709143e1f593f00000019109907f01fd59b61f15d097ad7701c4dc12b8739eadc1d54664773c3ed5d8104c296c2a87527e22ee53909feab41bb47f0e6ddb802bb6096fd2027d89c22d94b4e56e227cd08352611da78483898861289a565b611db68261020088018a612918565b7f30644e72e131a029b85045b68181585d2833e84879b9709143e1f593f000000191099485917f2fb4fbb4677318edec4b80fc8fa22ffcce4a51d5f3771e575e726e790a9f9cbe82527f28518b11376dc02418849d45b1f3b0e00d3f74502d713b002b9d7293a1018d799052611e2b9361289a565b610300016101f392612918565b602061025b91610260604051916467616d6d6161024084015260608301518284015260e08301516102808401526101008301516102a084015260c0816102c08501377f239ed22af3191cfccd323949e417667defbcb082d9f31527488e523372ea9e7a6103808401527f213da3cb623029a98e0186dc8c1a3a31ee249ab93bfb68abc1103900890eccb96103a08401527f01fd59b61f15d097ad7701c4dc12b8739eadc1d54664773c3ed5d8104c296c2a6103c08401527e22ee53909feab41bb47f0e6ddb802bb6096fd2027d89c22d94b4e56e227cd06103e08401527f2fb4fbb4677318edec4b80fc8fa22ffcce4a51d5f3771e575e726e790a9f9cbe6104008401527f28518b11376dc02418849d45b1f3b0e00d3f74502d713b002b9d7293a1018d796104208401526101208301516104408401526101808101356104608401526101a08101356104808401526101c08101356104a08401526101e08101356104c08401526102008101356104e084015283610300820161050085013701356105208201526102e56101e082019384920160025afa1561107e577f30644e72e131a029b85045b68181585d2833e84879b9709143e1f593f00000018151069052565b929190604051906102408201927f060081d04d187d301d4223990acab3c887713358f1705af7f53e07aca0f709dd845261026083017f16911506ad1ccf9b39db250ce7752278c8115127c4f85080c2bd153946b4a5be8152610280840196879361213f857f30644e72e131a029b85045b68181585d2833e84879b9709143e1f593f0000001896101808601356120f160e08c019e8f61209d82858784612852565b7f279df33b57d698efd752579ee90674a7241ecdb21c6cb35cdf8ef7c1af73160a85527f202fa12c1e82de2f49dc4c5bc771b94c8495544bb0055c4c381744cc3d1d332d8b526101a08a013594859161289a565b7f040315f3fd753e8cca89f353d096fb94fcdf9cd41973954a3dd4ec58cba79d5f8c527f18e0b4a84e9429c05d0fd0d304acd0f3cfa93437356c112199d4d7c0162a1c9e885209898c61289a565b7f2e14e072ab351d1b3838323f75ecf9b6c08043c230423d515febd04e29336b7787527f1553e1a7b6e18ba105733244604cd37d82371c3a7b0503fa4aff460870170bcf8352612196856101c0840135898c61289a565b7f0c203d7594efa49bd977084de30db24ce843e501791176c21b5beda79ceaf13687527f0c4bddeb52250b0114282b00285f224b812fc581f2b55e5c3a49472069f901f383526121e885888b806127f3565b61032082015f61030084015b6001821061227e575050509261227692610240869361226360a0986101f39c9d9a987f14992dea1a6515e3f8a2250e30cb9e3bad58ff44bbfdd1390bc8d0a8f2bddd0f8d527f1e82777c7079b474d31f9fedafca8f2d108de5c58a2df629a8af49cd424c8c2986528c8c61289a565b6102208101358a5201359052868661289a565b0190806127f3565b6040602060019261229e8f8c908f89358152858a01358d5284359161289a565b019301910190916121f4565b6040516020810151906040810151906060810151928151928061018087013593856101a0890135977f30644e72e131a029b85045b68181585d2833e84879b9709143e1f593f00000019086099160800151918684806101c08d01357f30644e72e131a029b85045b68181585d2833e84879b9709143e1f593f000000160198609907f30644e72e131a029b85045b68181585d2833e84879b9709143e1f593f00000019108907f30644e72e131a029b85045b68181585d2833e84879b9709143e1f593f0000001910892818c7f30644e72e131a029b85045b68181585d2833e84879b9709143e1f593f000000160058409907f30644e72e131a029b85045b68181585d2833e84879b9709143e1f593f00000019108907f30644e72e131a029b85045b68181585d2833e84879b9709143e1f593f00000019108927f30644e72e131a029b85045b68181585d2833e84879b9709143e1f593f00000019108907f30644e72e131a029b85045b68181585d2833e84879b9709143e1f593f00000019108907f30644e72e131a029b85045b68181585d2833e84879b9709143e1f593f00000019109907f30644e72e131a029b85045b68181585d2833e84879b9709143e1f593f000000191097f30644e72e131a029b85045b68181585d2833e84879b9709143e1f593f000000103907f30644e72e131a029b85045b68181585d2833e84879b9709143e1f593f00000019109907f30644e72e131a029b85045b68181585d2833e84879b9709143e1f593f00000019108957f30644e72e131a029b85045b68181585d2833e84879b9709143e1f593f00000016102008901358509907f30644e72e131a029b85045b68181585d2833e84879b9709143e1f593f00000019108907f30644e72e131a029b85045b68181585d2833e84879b9709143e1f593f00000019108927f30644e72e131a029b85045b68181585d2833e84879b9709143e1f593f00000016101e08801358409907f30644e72e131a029b85045b68181585d2833e84879b9709143e1f593f00000019108907f30644e72e131a029b85045b68181585d2833e84879b9709143e1f593f00000019108907f30644e72e131a029b85045b68181585d2833e84879b9709143e1f593f00000019061026087013509907f30644e72e131a029b85045b68181585d2833e84879b9709143e1f593f00000019109907f30644e72e131a029b85045b68181585d2833e84879b9709143e1f593f00000019109907f30644e72e131a029b85045b68181585d2833e84879b9709143e1f593f000000191096101f392611ffc565b604051610240810191606082015160208452602061026084015260206102808401526102a083015263010000026102c08301527f30644e72e131a029b85045b68181585d2833e84879b9709143e1f593f00000016102e083015260208360c08160055afa156116af578261271c9161270f8260c0809751936127078360a08a01966126f0828261014087018b612876565b6127008261010086018a80612825565b8780612852565b018380612825565b6101c08401519080612852565b0180517f30644e72e131a029b85045b68181585d97816a916871ca8d3c208c16d87cfd47039052565b6101207f30644e72e131a029b85045b68181585d2833e84879b9709143e1f593f0000001806040519381806020870151816040890151818a519381888180866101c0840135089581806101a08501358184818a6102008a0135090808956101e06101808601359501350908080909096102606101a08801519301359009086080840151820390087f30644e72e131a029b85045b68181585d2833e84879b9709143e1f593f000000103910152565b9192602060409481608094805185520151828401528051868401520151606082015260065afa1561282057565b610a16565b9192602060409481608094805185520151828401528035868401520135606082015260065afa1561282057565b9192604093602060609380518452015160208301528482015260075afa1561282057565b9192604093602060609380358452013560208301528482015260075afa1561282057565b906040929360206080928051835201516020820152838101948552838160608160075afa94835190526020830151606082015260065afa161561282057565b906040929360206080928035835201356020820152838101948552838160608160075afa94835190526020830151606082015260065afa161561282057565b917f30644e72e131a029b85045b68181585d2833e84879b9709143e1f593f00000019190829135098251089052565b602082526020808301526020604083015260608201527f30644e72e131a029b85045b68181585d2833e84879b9709143e1f593efffffff60808201527f30644e72e131a029b85045b68181585d2833e84879b9709143e1f593f000000160a082015260208160c08160055afa156116af575190565b60208252602080830152602060408301526060820152630100000060808201527f30644e72e131a029b85045b68181585d2833e84879b9709143e1f593f000000160a082015260208160c08160055afa156116af575190565b9192906040519361024085019160028403612b2c5792612ae683612adf8184867f30644e72e131a029b85045b68181585d2833e84879b9709143e1f593f00000017f30644e72e131a029b85045b68181585d2833e84879b9709143e1f593f0000000612ad38d9b6102009f9e8f612b279f606092879f612acc92612a9c612aa1928d610b26565b610baf565b612aaa81610bfd565b612ac6612ac0612abb8b8d85610d53565b611083565b826110da565b90611147565b01516129bc565b086101c08c01526111a7565b9285611404565b086101a0840152612af56116f3565b612afe81612745565b612b078161265f565b612b10816122aa565b612b1981611e38565b612b2281611bcb565b611785565b015190565b60648662461bcd60e51b815260206004820152601d60248201527f77726f6e67206e756d626572206f66207075626c696320696e707574730000006044820152fd5b359067ffffffffffffffff8216820361015357565b908160c0910312610153576040519060c082019082821067ffffffffffffffff8311176101a05760a091604052803583526020810135602084015260408101356040840152612bd460608201612b6e565b6060840152612be560808201612b6e565b6080840152013560a082015290565b9035907fffffffffffffffffffffffffffffffffffffffffffffffffffffffffffffff8181360301821215610153570190565b7f4e487b71000000000000000000000000000000000000000000000000000000005f52601160045260245ffd5b9067ffffffffffffffff8091169116039067ffffffffffffffff8211612c7657565b612c27565b15612c8257565b606460405162461bcd60e51b815260206004820152601b60248201527f70726f6f6620626c6f636b2072616e676520746f6f206c6172676500000000006044820152fd5b15612ccd57565b606460405162461bcd60e51b815260206004820152601b60248201527f617474657374656420626c6f636b206e6f7420696e2072616e676500000000006044820152fd5b67ffffffffffffffff81116101a057601f01601f191660200190565b9080601f8301121561015357813591612d458361024a565b92612d5360405194856101c1565b80845260208085019160051b830101918383116101535760208101915b838310612d7f57505050505090565b823567ffffffffffffffff811161015357820185603f8201121561015357602081013591612dac83612d11565b612db960405191826101c1565b8381526040838501018810610153575f602085819660408397018386013783010152815201920191612d70565b919082604091031261015357604051612dfe81610184565b80928035907fff00000000000000000000000000000000000000000000000000000000000000821682036101535760209183520135907fffffffffffffffffffffffffffffffffffffffffffffffffffffffff00000000821682036101535760200152565b81601f8201121561015357803590612e7a8261024a565b92612e8860405194856101c1565b828452602060a081860194028301019181831161015357602001925b828410612eb2575050505090565b60a08483031261015357602060a091604051612ecd816101a5565b612ed78588612de6565b8152612ee68560408901612de6565b8382015260808701356040820152815201930192612ea4565b9080601f8301121561015357813591612f178361024a565b92612f2560405194856101c1565b80845260208085019160051b830101918383116101535760208101915b838310612f5157505050505090565b823567ffffffffffffffff8111610153578201906060601f1983880301126101535760405190612f80826101a5565b602083013582526040830135602083015260608301359167ffffffffffffffff831161015357612fb888602080969581960101612e63565b6040820152815201920191612f42565b9080601f83011215610153578135612fdf8161024a565b92612fed60405194856101c1565b81845260208085019260051b820101918383116101535760208201905b83821061301957505050505090565b813567ffffffffffffffff81116101535760209161303c87848094880101610262565b81520191019061300a565b8082039291608084126101535760405191613061836101a5565b6040601f1984968335865201126101535760405161307e81610184565b6020820135815260408201356020820152602084015260608101359167ffffffffffffffff8311610153576040926130b69201610262565b910152565b91909160e081840312610153576130d06101e4565b92813567ffffffffffffffff811161015357816130ee918401612d2d565b8452602082013567ffffffffffffffff81116101535781613110918401612eff565b60208501526131228160408401612de6565b6040850152608082013567ffffffffffffffff81116101535781613147918401612e63565b606085015260a082013567ffffffffffffffff8111610153578161316c918401612fc8565b608085015260c082013567ffffffffffffffff81116101535761318f9201613047565b60a0830152565b1561319d57565b606460405162461bcd60e51b815260206004820152601360248201527f696e76616c69642073686172657350726f6f66000000000000000000000000006044820152fd5b6132b0949161329d916132aa956132a49561329861329287604061320786860186612b83565b61328861322c602061321d60c087018097612bf4565b013567ffffffffffffffff1690565b606083015167ffffffffffffffff1667ffffffffffffffff8061325a608087015167ffffffffffffffff1690565b936132746127108361326c8789612c54565b161115612c7b565b16911681101591826132bf575b5050612cc6565b01515f5588612bf4565b35600155565b613418565b36906130bb565b30613529565b50613196565b60031936018060045f375f2090565b67ffffffffffffffff16101590505f80613281565b7f4e487b71000000000000000000000000000000000000000000000000000000005f52602160045260245ffd5b6006111561330b57565b6132d4565b60408201805192939192600181116133ac57508351516133a1575b6020840191825182511115613395576133439061367d565b93519182511561337b579061335d939491519051906136c9565b61336681613301565b80613372575014905f90565b929150505f9190565b505160011415905061338d5714905f90565b50505f905f90565b50505050505f90600290565b505050505f90600190565b6133bd8551519160208701516135c9565b1461332b57505050505f90600190565b156133d457565b606460405162461bcd60e51b815260206004820152601f60248201527f696e76616c696420636f6d6d697448656164657252616e67652070726f6f66006044820152fd5b9291926134286103d08486610833565b7fd4e8ecd2000000000000000000000000000000000000000000000000000000007fffffffff00000000000000000000000000000000000000000000000000000000821603610503575091806134836134b6936020956109d1565b9461348c6108c4565b957ede39c136b88dfeacb832629e21a9667935bc0e74aaa21292e4f237d79d0bef61044488610913565b906134ee60405194859384937f7e4f7a8a00000000000000000000000000000000000000000000000000000000855260048501610961565b0381305afa80156104fe576101f3915f9161350a575b506133cd565b613523915060203d6020116104f7576104e981836101c1565b5f613504565b9190606081019283519061354a6080840191825160a0860194855192613832565b95901561357a5761357694955083519360208060408184015193015193519451955101510151946138f0565b9091565b505050505f9190565b61010003906101008211612c7657565b905f198201918211612c7657565b91908203918211612c7657565b6001019081600111612c7657565b91908201809211612c7657565b6001821115613665575f5b826001821b1061365457610100036101008111612c76576135f490613583565b91600161360084613593565b1b9161360b83613593565b81116136175750505090565b919250906001830361362b57505050600190565b8261363c61364894613642936135a1565b926135a1565b906135c9565b613651906135ae565b90565b60018101809111156135d457612c27565b50505f90565b805191908290602001825e015f815290565b5f6136b961369f6136ad6020946040519283918688840152602183019061366b565b03601f1981018352826101c1565b6040519182809261366b565b039060025afa156104fe575f5190565b93929381156137ae576001821461379a5784511561378f57826136eb83613a3c565b6136fe6136f88851613593565b88613a9d565b9281811061375a578161363c61371e9693613718936135a1565b906136c9565b909161372982613301565b816137535750506137488361374261374e949551613593565b90610935565b51613b5c565b905f90565b9350919050565b61376494506136c9565b909161376f82613301565b816137535750506137888361374261374e949551613593565b5190613b5c565b505090915090600590565b50509091516137a857905f90565b90600490565b505090915090600390565b916137d4918352602083019060208091805184520151910152565b6080606082015260e0810191805192606060808401528351809152602061010084019401905f5b81811061381c57505050604081602060c093015160a0850152015191015290565b82518652602095860195909201916001016137fb565b6020613895919392938551908287019673ffffffffffffffffffffffffffffffffffffffff6040895192015193604051968795869485937f1f3302a9000000000000000000000000000000000000000000000000000000008552600485016137b9565b0392165afa9081156104fe575f916138c7575b50156138bd5760206135769351015191613ba6565b5050505f90600490565b6138e0915060203d6020116104f7576104e981836101c1565b5f6138a8565b600b111561330b57565b92946138fd919486613ba6565b9015613a3157508251845103613a26575f94855b84518710156139525761394a600191613944602061392f8b8a610935565b51015161393c8b8a610935565b5151906135a1565b906135bc565b960195613911565b9092955093909293855103613a1a575f92835b8551851015613a0c5761398a602061397d8789610935565b51015161393c8789610935565b9061399f61399883836135bc565b828a613c65565b6139a8816138e6565b806139fd57506139d26139d691856139c08a89610935565b516139cb8b8d610935565b5190613dbf565b1590565b6139ee576001916139e6916135bc565b940193613965565b50505050925050505f90600190565b985050505050509150505f9190565b505050925050506001905f90565b50925050505f90600790565b505050505f90600590565b9493505050505f9190565b6001811061015357613a4d81613e83565b5f198101908111612c76576001901b908114613a665790565b60011c90565b90613a768261024a565b613a8360405191826101c1565b828152601f19613a93829461024a565b0190602036910137565b919082518111613af257613ab9613ab45f836135a1565b613a6c565b905f5b818110613aca575090925050565b80613ad760019287610935565b51613aeb613ae55f846135a1565b86610935565b5201613abc565b608460405162461bcd60e51b815260206004820152602f60248201527f496e76616c69642072616e67653a205f626567696e206f72205f656e6420617260448201527f65206f7574206f6620626f756e647300000000000000000000000000000000006064820152fd5b6136b95f91602093604051917f01000000000000000000000000000000000000000000000000000000000000008684015260218301526041820152604181526136ad6061826101c1565b8151815103613c5b575f5b8251811015613c5057613c37613bd1613bca8385610935565b5151613ea3565b613c26613beb6020613be38688610935565b510151613ea3565b9161369f6040613bfb8789610935565b510151604051948593602085019162ffffff199081605a959316845216601d830152603a8201520190565b613c308386610935565b5186613310565b5015613c4557600101613bb1565b505050505f90600290565b505050506001905f90565b5050505f90600690565b9190818111613d25578251808211908115613d1b575b50613d135780820392828411612c7657601f19613cb0613c9a8661024a565b95613ca860405197886101c1565b80875261024a565b015f5b818110613d02575050815b838110613cce5750505050905f90565b80613cfb613cde60019385610935565b51613ce986846135a1565b90613cf4828a610935565b5287610935565b5001613cbe565b806060602080938901015201613cb3565b505090600a90565b905082115f613c7b565b505090600990565b60405190613d3a82610184565b5f6020838281520152565b60405190613d52826101a5565b5f604083613d5e613d2d565b8152613d68613d2d565b60208201520152565b90613d7b8261024a565b613d8860405191826101c1565b828152601f19613d98829461024a565b01905f5b828110613da857505050565b602090613db3613d45565b82828501015201613d9c565b92909193613dcd8251613d71565b925f5b8351811015613e675760205f613e2462ffffff196136ad8b61369f613e08613df8898d610935565b5192613e02613d45565b50613ea3565b91604051948593888a860152166021840152603e83019061366b565b039060025afa156104fe576001905f51613e3c6101f5565b908982528960208301526040820152613e558288610935565b52613e608187610935565b5001613dd0565b509150935061365192613f50565b5f198114612c765760010190565b805f915b613e8f575090565b90613e9990613e75565b9060011c80613e87565b7fffffffffffffffffffffffffffffffffffffffffffffffffffffffff0000000060207fff000000000000000000000000000000000000000000000000000000000000008351169201511660405190602082019283526021820152601d8152613f0d603d826101c1565b51905162ffffff19811691601d8110613f2557505090565b62ffffff1992508290601d0360031b1b161690565b908160011b9180830460021490151715612c7657565b929190925f916040850193613f66855151613d71565b925f945b8751808214158061403c575b15613fc05781613f8c613fb492613fba94614047565b90613f98898b51610935565b51613fa38a8a610935565b52613fae8989610935565b506135bc565b95613e75565b94613f6a565b5050935094613ff692505f91908291613fe4613fdf6020840151613a3c565b613f3a565b9060018210614033575b8391926140af565b505093905b83518051861015614025576001916140168761401d93610935565b51906141ba565b940193613ffb565b509093506136519250614306565b60019150613fee565b508751518710613f76565b9182915f5b831515806140a4575b1561406d5761406390613e75565b9260011c9261404c565b925090928103908111612c765761408390613e83565b905f198201918211612c765781600192821161409e57501b90565b90501b90565b508360011615614055565b9395949290926140bd613d45565b5060016140ca84846135a1565b146141755784518211801590614167575b61414b57614108906140f56140f085856135a1565b613a3c565b9761410089866135bc565b8587896140af565b509197614123969295919461411d91906135bc565b916140af565b9194909392909115156001146141435761413c916141ba565b9291905f90565b509291905f90565b93604091935061415f95969250015161436e565b929391929091565b5060208501518310156140db565b93949591808694929451111590816141ac575b5061419b5750604061415f94015161436e565b805161415f9550919391925061434f565b90506020860151115f614188565b906141c3613d45565b5060205f6142a66141d78551855190614384565b946141e0613d2d565b506141f481516141ee6143b8565b90614419565b83146142cc576136ad6142056143b8565b955b61369f6142148451613ea3565b91604061422389870151613ea3565b950151906142318151613ea3565b604061423f8b840151613ea3565b920151926040519788968c880194919362ffffff19938460b598968180957f01000000000000000000000000000000000000000000000000000000000000008b521660018a015216601e880152603b87015216605b85015216607883015260958201520190565b039060025afa156104fe575f51906142bc6101f5565b9283526020830152604082015290565b6142d985516141ee6143b8565b83146142ec576136ad8482015195614207565b6136ad614300858301518688015190614438565b95614207565b906143148251825190614419565b9182614334575b8261432557505090565b60409192508101519101511490565b91506143496020830151602083015190614419565b9161431b565b906143669291949394614360613d45565b50614467565b919392909190565b9061437c9291614360613d45565b919390929190565b9061438d613d2d565b5061439782613ea3565b62ffffff19806143a684613ea3565b16911610156143b3575090565b905090565b6143c0613d2d565b506040516143cd81610184565b7fff0000000000000000000000000000000000000000000000000000000000000081527fffffffffffffffffffffffffffffffffffffffffffffffffffffffff00000000602082015290565b62ffffff1961443161442b8293613ea3565b93613ea3565b1691161490565b90614441613d2d565b5061444b82613ea3565b62ffffff198061445a84613ea3565b16911611156143b3575090565b90809392614473613d45565b5082519081159182156144c5575b5081156144ba575b506144a95761449791610935565b5160018301809311612c765791905f90565b50506144b3613d45565b9190600190565b90508110155f614489565b83101591505f61448156fea26469706673582212206933ed9139bb81000e5074a837e433145330538f6ac7097dd2e47e92fc1dea5264736f6c634300081e0033","linkReferences":{}},"methodIdentifiers":{"DATA_COMMITMENT_MAX()":"4710384e","SP1_BLOB_STREAM_PROGRAM_VK()":"79c039ba","VERIFIER_HASH()":"2a510436","VERSION()":"ffa1ad74","Verify(bytes,uint256[])":"7e4f7a8a","hashPublicValues(bytes)":"6b61d8e7","verify(bytes,bytes,(bytes[],(uint256,uint256,((bytes1,bytes28),(bytes1,bytes28),bytes32)[])[],(bytes1,bytes28),((bytes1,bytes28),(bytes1,bytes28),bytes32)[],(bytes32[],uint256,uint256)[],(uint256,(uint256,bytes32),(bytes32[],uint256,uint256))))":"ae4dd7e4","verifyAttestation(uint256,(uint256,bytes32),(bytes32[],uint256,uint256))":"1f3302a9","verifyProof(bytes32,bytes,bytes)":"41493c60"},"id":20}