{"abi":[{"type":"function","name":"verify","inputs":[{"name":"_root","type":"bytes32","internalType":"bytes32"},{"name":"sharesProof","type":"tuple","internalType":"struct SharesProof","components":[{"name":"data","type":"bytes[]","internalType":"bytes[]"},{"name":"shareProofs","type":"tuple[]","internalType":"struct NamespaceMerkleMultiproof[]","components":[{"name":"beginKey","type":"uint256","internalType":"uint256"},{"name":"endKey","type":"uint256","internalType":"uint256"},{"name":"sideNodes","type":"tuple[]","internalType":"struct NamespaceNode[]","components":[{"name":"min","type":"tuple","internalType":"struct Namespace","components":[{"name":"version","type":"bytes1","internalType":"bytes1"},{"name":"id","type":"bytes28","internalType":"bytes28"}]},{"name":"max","type":"tuple","internalType":"struct Namespace","components":[{"name":"version","type":"bytes1","internalType":"bytes1"},{"name":"id","type":"bytes28","internalType":"bytes28"}]},{"name":"digest","type":"bytes32","internalType":"bytes32"}]}]},{"name":"namespace","type":"tuple","internalType":"struct Namespace","components":[{"name":"version","type":"bytes1","internalType":"bytes1"},{"name":"id","type":"bytes28","internalType":"bytes28"}]},{"name":"rowRoots","type":"tuple[]","internalType":"struct NamespaceNode[]","components":[{"name":"min","type":"tuple","internalType":"struct Namespace","components":[{"name":"version","type":"bytes1","internalType":"bytes1"},{"name":"id","type":"bytes28","internalType":"bytes28"}]},{"name":"max","type":"tuple","internalType":"struct Namespace","components":[{"name":"version","type":"bytes1","internalType":"bytes1"},{"name":"id","type":"bytes28","internalType":"bytes28"}]},{"name":"digest","type":"bytes32","internalType":"bytes32"}]},{"name":"rowProofs","type":"tuple[]","internalType":"struct BinaryMerkleProof[]","components":[{"name":"sideNodes","type":"bytes32[]","internalType":"bytes32[]"},{"name":"key","type":"uint256","internalType":"uint256"},{"name":"numLeaves","type":"uint256","internalType":"uint256"}]},{"name":"attestationProof","type":"tuple","internalType":"struct AttestationProof","components":[{"name":"tupleRootNonce","type":"uint256","internalType":"uint256"},{"name":"tuple","type":"tuple","internalType":"struct DataRootTuple","components":[{"name":"height","type":"uint256","internalType":"uint256"},{"name":"dataRoot","type":"bytes32","internalType":"bytes32"}]},{"name":"proof","type":"tuple","internalType":"struct BinaryMerkleProof","components":[{"name":"sideNodes","type":"bytes32[]","internalType":"bytes32[]"},{"name":"key","type":"uint256","internalType":"uint256"},{"name":"numLeaves","type":"uint256","internalType":"uint256"}]}]}]}],"outputs":[],"stateMutability":"nonpayable"},{"type":"function","name":"verifyAttestation","inputs":[{"name":"_tupleRootNonce","type":"uint256","internalType":"uint256"},{"name":"tuple","type":"tuple","internalType":"struct DataRootTuple","components":[{"name":"height","type":"uint256","internalType":"uint256"},{"name":"dataRoot","type":"bytes32","internalType":"bytes32"}]},{"name":"proof","type":"tuple","internalType":"struct BinaryMerkleProof","components":[{"name":"sideNodes","type":"bytes32[]","internalType":"bytes32[]"},{"name":"key","type":"uint256","internalType":"uint256"},{"name":"numLeaves","type":"uint256","internalType":"uint256"}]}],"outputs":[{"name":"","type":"bool","internalType":"bool"}],"stateMutability":"view"}],"bytecode":{"object":"0x60808060405234601557611b0e908161001a8239f35b5f80fdfe60806040526004361015610011575f80fd5b5f3560e01c80631f3302a9146104d95763da31e3411461002f575f80fd5b3461038b5760407ffffffffffffffffffffffffffffffffffffffffffffffffffffffffffffffffc36011261038b5760243567ffffffffffffffff811161038b578036039060e07ffffffffffffffffffffffffffffffffffffffffffffffffffffffffffffffffc83011261038b576004355f557fffffffffffffffffffffffffffffffffffffffffffffffffffffffffffffff7d60c4820135920182121561038b5760048282010191823590816001556040519260c0840184811067ffffffffffffffff8211176104ac57604052806004013567ffffffffffffffff811161038b5760049082010136601f8201121561038b57803561012e816106cb565b9161013c60405193846106a8565b81835260208084019260051b8201019036821161038b5760208101925b82841061043557505050508452602481013567ffffffffffffffff811161038b5760049082010136601f8201121561038b578035610196816106cb565b916101a460405193846106a8565b81835260208084019260051b8201019036821161038b5760208101925b8284106103be575050505060208501526101de3660448301610784565b6040850152608481013567ffffffffffffffff811161038b576102079060043691840101610801565b606085015260a481013567ffffffffffffffff811161038b57600491010136601f8201121561038b57803561023b816106cb565b9161024960405193846106a8565b81835260208084019260051b8201019036821161038b5760208101925b82841061038f5750505050608084015267ffffffffffffffff1061038b578236036080811261038b57601f196040918251936102a18561068c565b8452011261038b576040516102b581610670565b60208401358152604084013560208201526020820152606083013567ffffffffffffffff811161038b576102ff936102ef913691016106e3565b604082015260a0820152306109e5565b501561030757005b60846040517f08c379a000000000000000000000000000000000000000000000000000000000815260206004820152602660248201527f766572696679536861726573546f44617461526f6f745475706c65526f6f742060448201527f6661696c656400000000000000000000000000000000000000000000000000006064820152fd5b5f80fd5b833567ffffffffffffffff811161038b576020916103b383928336918701016106e3565b815201930192610266565b833567ffffffffffffffff811161038b5782016060601f19823603011261038b57604051916103ec8361068c565b602082013583526040820135602084015260608201359267ffffffffffffffff841161038b576104256020949385809536920101610801565b60408201528152019301926101c1565b833567ffffffffffffffff811161038b57820136603f8201121561038b5760208101359167ffffffffffffffff83116104ac5760405161047f6020601f19601f87011601826106a8565b838152366040848601011161038b575f602085819660408397018386013783010152815201930192610159565b7f4e487b71000000000000000000000000000000000000000000000000000000005f52604160045260245ffd5b3461038b5760807ffffffffffffffffffffffffffffffffffffffffffffffffffffffffffffffffc36011261038b5760407fffffffffffffffffffffffffffffffffffffffffffffffffffffffffffffffdc36011261038b5760405161053e81610670565b60243581526020810190604435825260643567ffffffffffffffff811161038b5761056d9036906004016106e3565b60015460043503610612576105a3925f5490604051935160208501525160408401526040835261059e6060846106a8565b6108d4565b50156105b457602060405160018152f35b60646040517f08c379a000000000000000000000000000000000000000000000000000000000815260206004820152601e60248201527f42696e6172794d65726b6c65547265652e766572696679206661696c656400006044820152fd5b60646040517f08c379a000000000000000000000000000000000000000000000000000000000815260206004820152600d60248201527f496e76616c6964206e6f6e6365000000000000000000000000000000000000006044820152fd5b6040810190811067ffffffffffffffff8211176104ac57604052565b6060810190811067ffffffffffffffff8211176104ac57604052565b90601f601f19910116810190811067ffffffffffffffff8211176104ac57604052565b67ffffffffffffffff81116104ac5760051b60200190565b91909160608184031261038b57604051906106fd8261068c565b8193813567ffffffffffffffff811161038b5782019080601f8301121561038b578135610729816106cb565b9261073760405194856106a8565b81845260208085019260051b82010192831161038b57602001905b8282106107745750505060409182918452602081013560208501520135910152565b8135815260209182019101610752565b919082604091031261038b5760405161079c81610670565b80928035907fff000000000000000000000000000000000000000000000000000000000000008216820361038b5760209183520135907fffffffffffffffffffffffffffffffffffffffffffffffffffffffff000000008216820361038b5760200152565b81601f8201121561038b57803590610818826106cb565b9261082660405194856106a8565b828452602060a081860194028301019181831161038b57602001925b828410610850575050505090565b60a08483031261038b57602060a09160405161086b8161068c565b6108758588610784565b81526108848560408901610784565b8382015260808701356040820152815201930192610842565b600611156108a757565b7f4e487b71000000000000000000000000000000000000000000000000000000005f52602160045260245ffd5b60408201805192939192600181116109c457508351516109b9575b60208401918251825111156109ad575f60209160405161093360218286808201958787528051918291018484015e810186838201520301601f1981018352826106a8565b604051918291518091835e8101838152039060025afa156109a2575f51935191825115610988579061096a93949151905190610bdc565b60068110156108a7578061097f575014905f90565b929150505f9190565b505160011415905061099a5714905f90565b50505f905f90565b6040513d5f823e3d90fd5b50505050505f90600290565b505050505f90600190565b6109d5855151916020870151610ad1565b146108ef57505050505f90600190565b91906060810192835190610a066080840191825160a0860194855192610ccc565b959015610a3657610a329495508351936020806040818401519301519351945195510151015194610e02565b9091565b505050505f9190565b61010003906101008211610a4f57565b7f4e487b71000000000000000000000000000000000000000000000000000000005f52601160045260245ffd5b907fffffffffffffffffffffffffffffffffffffffffffffffffffffffffffffffff8201918211610a4f57565b91908203918211610a4f57565b6001019081600111610a4f57565b91908201809211610a4f57565b6001821115610b95575f5b826001821b10610b5c57610100036101008111610a4f57610afc90610a3f565b916001610b0884610a7c565b1b91610b1383610a7c565b8111610b1f5750505090565b9192509060018303610b3357505050600190565b82610b44610b5094610b4a93610aa9565b92610aa9565b90610ad1565b610b5990610ab6565b90565b6001810180911115610adc577f4e487b71000000000000000000000000000000000000000000000000000000005f52601160045260245ffd5b50505f90565b8051821015610baf5760209160051b010190565b7f4e487b71000000000000000000000000000000000000000000000000000000005f52603260045260245ffd5b9392938115610cc15760018214610cad57845115610ca25782610bfe836111a2565b610c11610c0b8851610a7c565b886111f1565b92818110610c6d5781610b44610c319693610c2b93610aa9565b90610bdc565b9091610c3c8261089d565b81610c66575050610c5b83610c55610c61949551610a7c565b90610b9b565b516112db565b905f90565b9350919050565b610c779450610bdc565b9091610c828261089d565b81610c66575050610c9b83610c55610c61949551610a7c565b51906112db565b505090915090600590565b5050909151610cbb57905f90565b90600490565b505090915090600390565b9291909180519360208201946040865193015160206040519485937f1f3302a9000000000000000000000000000000000000000000000000000000008552600485015280516024850152015160448301526080606483015260e4820190805191606060848501528251809152602061010485019301905f5b818110610de95750505073ffffffffffffffffffffffffffffffffffffffff8360209593604084888496015160a4850152015160c48301520392165afa9081156109a2575f91610dae575b5015610da4576020610a329351015191611344565b5050505f90600490565b90506020813d602011610de1575b81610dc9602093836106a8565b8101031261038b5751801515810361038b575f610d8f565b3d9150610dbc565b8251855287955060209485019490920191600101610d44565b94610e1291949692939687611344565b90156111985750825185510361118c575f94855b8451871015610e6757610e5f600191610e596020610e448b8a610b9b565b510151610e518b8a610b9b565b515190610aa9565b90610ac4565b960195610e26565b9092955093909293815103611181579190925f805b825182101561117357610ea16020610e948486610b9b565b510151610e518486610b9b565b90610eb6610eaf8383610ac4565b82886113ff565b600b8197929710156108a757806111655750610ed28489610b9b565b5197610ede8587610b9b565b5195610eea8851611523565b985f5b8951811015610fae5760205f8e82610f57603e8f610f0e88610f1e92610b9b565b5194610f186114df565b506115be565b9360405193849162ffffff19828401978989521660218401528051918291018484015e810186838201520301601f1981018352826106a8565b604051918291518091835e8101838152039060025afa156109a257808d610f9c6001938e5f5160405194610f8a8661068c565b80865260208601526040850152610b9b565b52610fa7818d610b9b565b5001610eed565b509896999493919a97509491945f9060408b0199610fcd8b5151611523565b995f935b8d51808214158061115a575b1561103957918e9f93918e9f95938f8f9261101f8a61102b9561100e826110076110259887611655565b9651610b9b565b516110198383610b9b565b52610b9b565b50610ac4565b96611571565b9591939f5091939d50610fd1565b50509397969a9b925093979094985061105560208301516111a2565b908160011b9180830460021490151715610a4f57611082925f92839260018210611151575b8391926116db565b505093905b8a5180518610156110b1576001916110a2876110a993610b9b565b51906117e6565b940193611087565b5092959350985098959296815162ffffff19806110d86110d28551946115be565b936115be565b169116149182611129575b82611116575b505015611108576001916110fc91610ac4565b92019093929491610e7c565b505f96506001955050505050565b6040919250810151910151145f806110e9565b9150602082015162ffffff19806111476110d26020860151946115be565b16911614916110e3565b6001915061107a565b508d51518610610fdd565b5f9950975095505050505050565b505050925050506001905f90565b505f93506007925050565b93505050505f90600590565b5f95509350915050565b6001811061038b576111b38161159e565b7fffffffffffffffffffffffffffffffffffffffffffffffffffffffffffffffff8101908111610a4f576001901b9081146111eb5790565b60011c90565b91908251811161125757611204816106cb565b9061121260405192836106a8565b808252601f19611221826106cb565b013660208401375f5b818110611238575090925050565b8061124560019287610b9b565b516112508286610b9b565b520161122a565b60846040517f08c379a000000000000000000000000000000000000000000000000000000000815260206004820152602f60248201527f496e76616c69642072616e67653a205f626567696e206f72205f656e6420617260448201527f65206f7574206f6620626f756e647300000000000000000000000000000000006064820152fd5b5f9060209260405190848201927f0100000000000000000000000000000000000000000000000000000000000000845260218301526041820152604181526113246061826106a8565b604051918291518091835e8101838152039060025afa156109a2575f5190565b81518151036113f5575f5b82518110156113ea576113d161136f6113688385610b9b565b51516115be565b611386602061137e8587610b9b565b5101516115be565b62ffffff1960406113978688610b9b565b51015191816040519416602085015216603d830152605a820152605a81526113c0607a826106a8565b6113ca8386610b9b565b51866108d4565b50156113df5760010161134f565b505050505f90600290565b505050506001905f90565b5050505f90600690565b91908181116114bf5782518082119081156114b5575b506114ad576114248183610aa9565b92601f1961144a611434866106cb565b9561144260405197886106a8565b8087526106cb565b015f5b81811061149c575050815b8381106114685750505050905f90565b8061149561147860019385610b9b565b516114838684610aa9565b9061148e828a610b9b565b5287610b9b565b5001611458565b80606060208093890101520161144d565b505090600a90565b905082115f611415565b505090600990565b604051906114d482610670565b5f6020838281520152565b604051906114ec8261068c565b5f60408381516114fb81610670565b8381528360208201528152815161151181610670565b83815283602082015260208201520152565b9061152d826106cb565b61153a60405191826106a8565b828152601f1961154a82946106cb565b01905f5b82811061155a57505050565b6020906115656114df565b8282850101520161154e565b7fffffffffffffffffffffffffffffffffffffffffffffffffffffffffffffffff8114610a4f5760010190565b805f915b6115aa575090565b906115b490611571565b9060011c806115a2565b7fffffffffffffffffffffffffffffffffffffffffffffffffffffffff0000000060207fff000000000000000000000000000000000000000000000000000000000000008351169201511660405190602082019283526021820152601d8152611628603d826106a8565b51905162ffffff19811691601d811061164057505090565b62ffffff1992508290601d0360031b1b161690565b9091815f5b831515806116d0575b1561167b5761167190611571565b9260011c9261165a565b925061168b906116909294610aa9565b61159e565b907fffffffffffffffffffffffffffffffffffffffffffffffffffffffffffffffff8201918211610a4f578160019282116116ca57501b90565b90501b90565b508360011615611663565b9395949290926116e96114df565b5060016116f68484610aa9565b146117a15784518211801590611793575b611777576117349061172161171c8585610aa9565b6111a2565b9761172c8986610ac4565b8587896116db565b50919761174f96929591946117499190610ac4565b916116db565b91949093929091151560011461176f57611768916117e6565b9291905f90565b509291905f90565b93604091935061178b95969250015161197b565b929391929091565b506020850151831015611707565b93949591808694929451111590816117d8575b506117c75750604061178b94015161197b565b805161178b9550919391925061195c565b90506020860151115f6117b4565b6117ee6114df565b5060205f6117ff8351855190611991565b9360405161180c81610670565b8281528301829052835162ffffff19806118306110d261182a6119d2565b946115be565b16911614821461191b576118426119d2565b935b61184e81516115be565b9162ffffff196040611862878501516115be565b930151918161187182516115be565b604061187f8a8501516115be565b930151948260405197818c8a019a7f01000000000000000000000000000000000000000000000000000000000000008c521660218a015216603e880152605b87015216607b85015216609883015260b582015260b581526118e160d5826106a8565b604051918291518091835e8101838152039060025afa156109a2575f51906040519261190c8461068c565b83526020830152604082015290565b805162ffffff19806119316110d261182a6119d2565b169116148214611945578284015193611844565b611956838501518483015190611a33565b93611844565b90611973929194939461196d6114df565b50611a6f565b919392909190565b90611989929161196d6114df565b919390929190565b9060405161199e81610670565b5f81525f6020820152506119b1826115be565b62ffffff19806119c0846115be565b16911610156119cd575090565b905090565b6119da6114c7565b506040516119e781610670565b7fff0000000000000000000000000000000000000000000000000000000000000081527fffffffffffffffffffffffffffffffffffffffffffffffffffffffff00000000602082015290565b90604051611a4081610670565b5f81525f602082015250611a53826115be565b62ffffff1980611a62846115be565b16911611156119cd575090565b90809392611a7b6114df565b508251908115918215611acd575b508115611ac2575b50611ab157611a9f91610b9b565b5160018301809311610a4f5791905f90565b5050611abb6114df565b9190600190565b90508110155f611a91565b83101591505f611a8956fea2646970667358221220dd39caffa8448131a0c9930226a36da523e980741006421cd9d6ac6172bb2b1b64736f6c634300081a0033","linkReferences":{}},"methodIdentifiers":{"verify(bytes32,(bytes[],(uint256,uint256,((bytes1,bytes28),(bytes1,bytes28),bytes32)[])[],(bytes1,bytes28),((bytes1,bytes28),(bytes1,bytes28),bytes32)[],(bytes32[],uint256,uint256)[],(uint256,(uint256,bytes32),(bytes32[],uint256,uint256))))":"da31e341","verifyAttestation(uint256,(uint256,bytes32),(bytes32[],uint256,uint256))":"1f3302a9"},"id":17}